{
  "contractName": "Vote",
  "abi": [
    {
      "inputs": [],
      "stateMutability": "nonpayable",
      "type": "constructor"
    },
    {
      "anonymous": false,
      "inputs": [
        {
          "indexed": false,
          "internalType": "uint256",
          "name": "id",
          "type": "uint256"
        },
        {
          "indexed": false,
          "internalType": "uint256",
          "name": "voteCount",
          "type": "uint256"
        }
      ],
      "name": "VoteSubmitted",
      "type": "event"
    },
    {
      "inputs": [
        {
          "internalType": "uint256",
          "name": "",
          "type": "uint256"
        }
      ],
      "name": "candidates",
      "outputs": [
        {
          "internalType": "bool",
          "name": "",
          "type": "bool"
        }
      ],
      "stateMutability": "view",
      "type": "function"
    },
    {
      "inputs": [
        {
          "internalType": "address",
          "name": "",
          "type": "address"
        }
      ],
      "name": "registered",
      "outputs": [
        {
          "internalType": "bool",
          "name": "",
          "type": "bool"
        }
      ],
      "stateMutability": "view",
      "type": "function"
    },
    {
      "inputs": [],
      "name": "totalCandidates",
      "outputs": [
        {
          "internalType": "uint256",
          "name": "",
          "type": "uint256"
        }
      ],
      "stateMutability": "view",
      "type": "function"
    },
    {
      "inputs": [],
      "name": "totalVotes",
      "outputs": [
        {
          "internalType": "uint256",
          "name": "",
          "type": "uint256"
        }
      ],
      "stateMutability": "view",
      "type": "function"
    },
    {
      "inputs": [
        {
          "internalType": "uint256",
          "name": "",
          "type": "uint256"
        }
      ],
      "name": "voteCount",
      "outputs": [
        {
          "internalType": "uint256",
          "name": "",
          "type": "uint256"
        }
      ],
      "stateMutability": "view",
      "type": "function"
    },
    {
      "inputs": [],
      "name": "register",
      "outputs": [],
      "stateMutability": "nonpayable",
      "type": "function"
    },
    {
      "inputs": [
        {
          "internalType": "uint256",
          "name": "id",
          "type": "uint256"
        }
      ],
      "name": "addCandidate",
      "outputs": [],
      "stateMutability": "nonpayable",
      "type": "function"
    },
    {
      "inputs": [],
      "name": "startElections",
      "outputs": [],
      "stateMutability": "nonpayable",
      "type": "function"
    },
    {
      "inputs": [
        {
          "internalType": "uint256",
          "name": "candidateId",
          "type": "uint256"
        }
      ],
      "name": "castVote",
      "outputs": [],
      "stateMutability": "nonpayable",
      "type": "function"
    }
  ],
  "bytecode": "0x608060405234801561001057600080fd5b5033600560006101000a81548173ffffffffffffffffffffffffffffffffffffffff021916908373ffffffffffffffffffffffffffffffffffffffff1602179055506107de806100616000396000f3fe608060405234801561001057600080fd5b50600436106100935760003560e01c80633eb76b9c116100665780633eb76b9c146101245780634fc8a20d1461015257806399eeafab14610194578063b2dd5c071461019e578063e844d097146101fa57610093565b80630d15fd77146100985780631aa3a008146100b65780633477ee2e146100c05780633866965c14610106575b600080fd5b6100a0610228565b6040518082815260200191505060405180910390f35b6100be61022e565b005b6100ec600480360360208110156100d657600080fd5b810190808035906020019092919050505061034e565b604051808215151515815260200191505060405180910390f35b61010e61036e565b6040518082815260200191505060405180910390f35b6101506004803603602081101561013a57600080fd5b8101908080359060200190929190505050610374565b005b61017e6004803603602081101561016857600080fd5b810190808035906020019092919050505061058d565b6040518082815260200191505060405180910390f35b61019c6105a5565b005b6101e0600480360360208110156101b457600080fd5b81019080803573ffffffffffffffffffffffffffffffffffffffff169060200190929190505050610685565b604051808215151515815260200191505060405180910390f35b6102266004803603602081101561021057600080fd5b81019080803590602001909291905050506106a5565b005b60045481565b60011515600160003373ffffffffffffffffffffffffffffffffffffffff1673ffffffffffffffffffffffffffffffffffffffff16815260200190815260200160002060009054906101000a900460ff16151514156102f5576040517f08c379a000000000000000000000000000000000000000000000000000000000815260040180806020018281038252601a8152602001807f5573657220697320616c7265616479207265676973746572656400000000000081525060200191505060405180910390fd5b60018060003373ffffffffffffffffffffffffffffffffffffffff1673ffffffffffffffffffffffffffffffffffffffff16815260200190815260200160002060006101000a81548160ff021916908315150217905550565b60026020528060005260406000206000915054906101000a900460ff1681565b60035481565b60011515600160003373ffffffffffffffffffffffffffffffffffffffff1673ffffffffffffffffffffffffffffffffffffffff16815260200190815260200160002060009054906101000a900460ff1615151461043a576040517f08c379a00000000000000000000000000000000000000000000000000000000081526004018080602001828103825260168152602001807f75736572206973206e6f7420726567697374657265640000000000000000000081525060200191505060405180910390fd5b80600115156002600083815260200190815260200160002060009054906101000a900460ff161515146104d5576040517f08c379a00000000000000000000000000000000000000000000000000000000081526004018080602001828103825260138152602001807f6973206e6f7420616e2063616e6469646174650000000000000000000000000081525060200191505060405180910390fd5b600560149054906101000a900460ff16610557576040517f08c379a00000000000000000000000000000000000000000000000000000000081526004018080602001828103825260158152602001807f656c656374696f6e73206e6f742073746172746564000000000000000000000081525060200191505060405180910390fd5b60016000808481526020019081526020016000206000828254019250508190555060016004600082825401925050819055505050565b60006020528060005260406000206000915090505481565b600560009054906101000a900473ffffffffffffffffffffffffffffffffffffffff1673ffffffffffffffffffffffffffffffffffffffff163373ffffffffffffffffffffffffffffffffffffffff1614610668576040517f08c379a000000000000000000000000000000000000000000000000000000000815260040180806020018281038252600f8152602001807f6973206e6f7420616e206f776e6572000000000000000000000000000000000081525060200191505060405180910390fd5b6001600560146101000a81548160ff021916908315150217905550565b60016020528060005260406000206000915054906101000a900460ff1681565b600560009054906101000a900473ffffffffffffffffffffffffffffffffffffffff1673ffffffffffffffffffffffffffffffffffffffff163373ffffffffffffffffffffffffffffffffffffffff1614610768576040517f08c379a000000000000000000000000000000000000000000000000000000000815260040180806020018281038252600f8152602001807f6973206e6f7420616e206f776e6572000000000000000000000000000000000081525060200191505060405180910390fd5b60016002600083815260200190815260200160002060006101000a81548160ff02191690831515021790555060016003600082825401925050819055505056fea2646970667358221220724610c35602129163b4e7dcd96cf1ab9823cc6f1fab4f5468b1683a2c0f52b964736f6c63430006060033",
  "immutableReferences": {},
  "source": "pragma solidity ^0.6.0;\r\n\r\ncontract Vote {\r\n    mapping(uint256 => uint256) public voteCount;\r\n    mapping(address => bool) public registered;\r\n    mapping(uint256 => bool) public candidates;\r\n    event VoteSubmitted(uint256 id, uint256 voteCount);\r\n    uint256 public totalCandidates;\r\n    uint256 public totalVotes;\r\n    address private owner;\r\n    bool started;\r\n\r\n    constructor() public {\r\n        owner = msg.sender;\r\n    }\r\n\r\n    modifier onlyOwner {\r\n        require(msg.sender == owner, \"is not an owner\");\r\n        _;\r\n    }\r\n\r\n    modifier isRegistered {\r\n        require(registered[msg.sender] == true, \"user is not registered\");\r\n        _;\r\n    }\r\n\r\n    modifier isCandidate(uint256 id) {\r\n        require(candidates[id] == true, \"is not an candidate\");\r\n        _;\r\n    }\r\n\r\n    modifier isStarted {\r\n        require(started, \"elections not started\");\r\n        _;\r\n    }\r\n\r\n    function register() public {\r\n        require(registered[msg.sender] != true, \"User is already registered\");\r\n        registered[msg.sender] = true;\r\n    }\r\n\r\n    function addCandidate(uint256 id) public onlyOwner {\r\n        candidates[id] = true;\r\n        totalCandidates += 1;\r\n    }\r\n\r\n    function startElections() public onlyOwner {\r\n        started = true;\r\n    }\r\n\r\n    function castVote(uint256 candidateId)\r\n        public\r\n        isRegistered\r\n        isCandidate(candidateId)\r\n        isStarted\r\n    {\r\n        voteCount[candidateId] += 1;\r\n        totalVotes += 1;\r\n    }\r\n}\r\n",
  "sourcePath": "E:\\Sample_apps\\votingapp_web3_reducer\\client\\contracts\\Vote.sol",
  "compiler": {
    "name": "solc",
    "version": "0.6.6+commit.6c089d02.Emscripten.clang"
  },
  "schemaVersion": "3.1.0",
  "updatedAt": "2020-06-15T06:56:22.906Z",
  "devdoc": {
    "methods": {}
  },
  "userdoc": {
    "methods": {}
  }
}